:100000000C94EC020C9424030C9424030C9424030D
:100010000C9424030C9424030C9424030C942403C4
:100020000C9424030C9424030C94132B0C94E72BB2
:100030000C943D250C9424030C9424030C94240369
:100040000C9424030C9424030C9424030C94240394
:100050000C9424030C94E0250C9424030C942403A6
:100060000C9424030C9424030C9424030C94240374
:100070000C9424030C9424030C9424030C94240364
:100080000C9424030C9424030C9424030C94240354
:100090000C9424030C9424030C9424030C94240344
:1000A0000C9424030C9424030C94240300021222C5
:1000B000000313230004142400051525000616264A
:1000C000000717270102122201031323010414243D
:1000D000010515250106162601071727020212221F
:1000E0000203132302041424005040300051413114
:1000F00000524232005545350056463600574737C4
:1001000001514131015242320155453501564636C1
:1001100001574737025040300251413102524232BA
:10012000008070600081716100827262008373637D
:1001300000847464008575650257473701807060DC
:10014000018171610182726201837363018474644D
:10015000018575650255453502564636000A1A2A4C
:10016000000B1B2B000C1C2C000D1D2D000E1E2E39
:10017000000F1F2F01887868010A1A2A010B1B2B18
:10018000010C1C2C010D1D2D010E1E2E010F1F2F09
:1001900002837363028474640058483800594939F3
:1001A000005A4A3A005D4D3D005E4E3E005F4F3FB3
:1001B000018979690158483801594939015A4A3A3F
:1001C000015D4D3D015E4E3E015F4F3F028575650D
:1001D0000088786800897969008A7A6A008B7B6B6D
:1001E000008C7C6C008D7D6D018A7A6A018B7B6B43
:1001F000018C7C6C018D7D6D02051525020616268D
:10020000020717273900AA00A900A8003D003E00F8
:100210003F004000410042004300440045004C00C4
:10022000460035001E001F002000210022000000B3
:10023000230024002500260027002D002E002A0080
:100240002B0014001A000800150017004B001C00BA
:1002500018000C00120013002F003000310029009C
:1002600004001600070009000A002A000B000D0018
:100270000E000F003300340028004E00E1001D0086
:100280001B000600190005002800110010003600B0
:1002900037003800E50052000000E000E300E20013
:1002A00000002C00E000E1002C000000E6002152DC
:1002B000E400500051004F00007C010001000100EB
:1002C00001000100010001000100B200B300AF0015
:1002D000B1001370037C0100010001000100010066
:1002E0000100000001000100010001000100010007
:1002F000010053002078217827782378010001003D
:100300004A0001000100010001000100010001009C
:10031000010001002A7828782978010001000100F5
:1003200001000100010001000100010001004D0079
:1003300001000100010001000100010001000100B5
:100340000100010001000100A800A9000000010057
:100350000100010000000100010001000100000097
:1003600001000100AE00AC00AA00AB0000010101D9
:100370000101010101010202020202020202020362
:100380000303030303030304040404040404050532
:1003900005050506060606060707070707080808F5
:1003A00008090909090A0A0A0B0B0B0C0C0C0D0DA4
:1003B0000D0E0E0E0F0F0F1010111111121213133C
:1003C0001414151516161717181819191A1A1B1BB5
:1003D0001C1D1D1E1E1F2020212222232424252611
:1003E00026272829292A2B2C2D2D2E2F3031323249
:1003F000333435363738393A3B3C3D3E3F40414255
:10040000434445464748494A4C4D4E4F505153543A
:10041000555658595A5B5D5E5F61626465666869EE
:100420006B6C6D6F7072737577787A7B7D7E80826E
:10043000838587888A8C8E8F91939596989A9C9EB7
:10044000A0A2A3A5A7A9ABADAFB1B3B5B7BABCBEC7
:10045000C0C2C4C6C9CBCDCFD1D4D6D8DBDDDFE294
:10046000E4E7E9EBEEF0F3F5F8FAFDFF0E034B00DD
:100470004E00490047004800540000000E03580099
:100480002D0042004F0057005300000004030904F0
:1004900009023B00020100A0FA0904000001030167
:1004A0000100092111010001224400070581030810
:1004B00000010904010001030000000921110100ED
:1004C0000122B6000705820320000112010002008C
:1004D00000000842586E4B010001020001050109AD
:1004E00002A10185020901A10005091901290815C8
:1004F00000250195087501810205010930093115B2
:1005000081257F95027508810609381581257F951B
:100510000175088106050C0A38021581257F9501B1
:1005200075088106C0C005010980A1018503190174
:100530002AB700150126B700950175108100C00586
:100540000C0901A101850419012AA002150126A0A8
:1005500002950175108100C005010906A1018506FB
:10056000050719E029E715002501950875018102A5
:100570000507190029EF1500250195F07501810285
:100580000508190129059505750191029501750365
:100590009101C005010906A101050719E029E71528
:1005A00000250195087501810295017508810105F5
:1005B00007190029FF150026FF0095067508810020
:1005C00005081901290515002501950575019102F8
:1005D000950175039101C00011241FBECFEFDAE031
:1005E000DEBFCDBF04B603FE18C08091A206909175
:1005F000A306A091A406B091A5068730904BA74012
:10060000B04B59F41092A2061092A3061092A406C1
:100610001092A506E0E0F8E3099513E0A0E0B1E050
:10062000EAE1FEE502C005900D92A831B107D9F7C5
:1006300026E0A8E1B3E001C01D92A23AB207E1F7BB
:100640000E948C120C94A52E0C940000CF930E9453
:100650002416C82F882359F00E94632381FF07C006
:100660002FEF4FEF6FEF8CE290E00E943A158C2F46
:10067000CF9108958230B8F46630A8F44F3098F4E2
:1006800050E09FE0699F400D511D1124FA019AE549
:10069000899FE00DF11D1124EE0FFF1FEC5FFD4F50
:1006A00085919491089581E090E008950E943A0325
:1006B000089581E008950E945903089581E0089506
:1006C0000E94590308950E946003089508950E94AE
:1006D00066030895A6E0B0E0E0E7F3E00C940C2E8A
:1006E00049835A839E8330911F0389819A813111F6
:1006F0001AC03E81332399F0222389F00E94100909
:10070000182F682F89819A810E94EC0869817A816B
:10071000812F0E942C102696E3E00C94282E0E9434
:10072000FE08182FF3CF0E94100969817A81F1CF5A
:10073000FC01262F408151816281738184819581E2
:100740000E946A030895CF93DF93EC0161E00E9459
:100750009803BE010E945B03DF91CF910895CF9370
:10076000DF93EC0160E00E949803BE010E946703E2
:10077000DF91CF91089581E008950E94BB03089511
:10078000CF93C82F0E94C1078C2F0E94BD032FEF6B
:1007900084E39CE0215080409040E1F700C00000DD
:1007A000CF91089581E00E94C0030E94042608951D
:1007B00080E00E94C0030E94282608950F931F9393
:1007C000CF93DF938C0161E00E949803EC01B801A4
:1007D0000E946303811106C080E0DF91CF911F91D9
:1007E0000F910895B801CE010E940D238823A1F333
:1007F000B801CE010E94371F882371F3B801CE01E2
:100800000E940D1F882341F3B801CE010E94921E61
:10081000882311F3F8018581882361F0C330FCE758
:10082000DF07E9F058F4C115ECE7DE07A9F0C130A5
:10083000DC47B9F0C8010E945E03CFCFCB358CE70F
:10084000D807A9F0CC35ECE7DE0771F0CA35DC47F4
:1008500089F70E94570DEECF0E94D203BDCF0E94B0
:100860005F0D0E94D803B8CF0E944D0DE3CF0E94C8
:100870005B0DE0CF0E9419250E94701A0E94690446
:1008800081E00E948B1B08950E946D0480E00E940D
:100890008B1B0E941E250895089581E008950895F8
:1008A000CF93DF93D82F0E944D04C82F882319F0CF
:1008B0008D2F0E944F048C2FDF91CF9108950895C2
:1008C000CF93C82F0E944C048C2F0E945004CF91CC
:1008D000089580E00E94600408950E9456230E94BB
:1008E00060040895CF930E945623C82F80911A0365
:1008F0008C1779F0C0931A030E94A92560931B03FB
:1009000070931C0380931D0390931E038C2F0E94F1
:100910006004CF910895ADE0B0E0E1E9F4E00C941B
:100920000D2E488759876A877B878C879D87911111
:100930000E945D0C1F8286E0FE013896DE01119652
:1009400001900D928A95E1F78D8181110DC0298169
:100950003A814B815C816D817E818F810E94A70BE2
:100960002D96E2E00C94292ECE0101960E94A3035D
:100970008111EDCFF5CFFC012481213021F480815C
:1009800091810E9442090895662329F00E949820CF
:100990000E947D2108950E940421FACFCF93C82F91
:1009A000882399F08CEF8C0F813A88F48C2F0E9469
:1009B000F923882329F08C2F0E9499240E94F10C9E
:1009C0008C2F0E9482240E94F10CCF91089580E226
:1009D0008C0F883048F4C77081E001C0880FCA9539
:1009E000EAF70E94400CEFCFEBE5EC0FE33040F468
:1009F000F0E0EC54FD4F808190E00E948D23E5CF24
:100A0000E8E5EC0FEB3150F4F0E0EE0FFF1FE25899
:100A1000FD4F808191810E94B223D7CF83E38C0F59
:100A2000833198F661E08C2F0E94C404CECF8823D6
:100A300081F19CEF980F913A28F40E9499240E942A
:100A4000F10C089590E2980F983050F4877091E07F
:100A500001C0990F8A95EAF7892F0E94460CEFCFC3
:100A60009BE5980F933028F490E080E00E948D235E
:100A7000089598E5980F9B3128F490E080E00E945B
:100A8000B223089593E3980F933118F460E00E9425
:100A9000C40408951F93CF93DF93182FEB010E9496
:100AA000CE04209739F4812F0E941705DF91CF9152
:100AB0001F9108958FE99FE00197F1F700C00000B2
:100AC0002197EFCF70E060E0893311F460E570E0CA
:100AD0000E944A050895882321F00E94400C0E943C
:100AE000F10C0895882321F00E94460C0E94F10C1D
:100AF0000895B0E0A0E0EFE7F5E00C94062E6C015D
:100B0000D62FC72FFC011581068102950F700E9418
:100B1000360CE82E8823F9F0E12E1123E1F08C2F1A
:100B2000807F803461F080E28D0F883008F18C2F57
:100B3000807E803221F4D230D8F00023C9F0809139
:100B4000430682FF15C082E00E94210D0E94360CF0
:100B500091E0E82EE926BC2EB2949FE0B922FBE09A
:100B6000FB15B8F1EB2DF0E0E955F14D0C94F72DA4
:100B7000E12CF1CF0C2F0F70C07F11F00295007F98
:100B8000112399F0002359F080E28D0F883010F086
:100B9000D11107C0802F0E94400C0E94F10C8D2FB4
:100BA0005AC0802F0E94500CF8CF8D2F0E9417053D
:100BB000002379F080E28D0F883010F0D11104C04D
:100BC000802F0E94460C03C0802F0E94560C0E946A
:100BD000F10CEB2DE850FF0B349720F40E945623C4
:100BE0000E946004EE2089F00E94320C80FD0DC04E
:100BF000F60115820E942C0C0E944A08C6010E9430
:100C000088070E942C0C0E945A08CDB7DEB7E9E095
:100C10000C94222E2C2F2F70F22EC07FC03219F090
:100C2000F29480EFF822DD2341F0D130D1F111238D
:100C300009F444C00023F1F0B2CF8091430682FD55
:100C400015C0112359F0FF2029F08F2D0E94400C70
:100C50000E94F10C80E00E94CE04BBCF80E00E9495
:100C60001705FF2009F4B5CF8F2DABCF112369F005
:100C7000011104C08F2D0E946B05ABCF013009F02C
:100C8000A8CF8F2D0E94740CA4CF0111A2CF8F2D5D
:100C90000E9472058F2D0E94800C8F2D0E94640C83
:100CA00098CF112321F0063008F093CFE3CF053021
:100CB00008F08FCF8F2D0E9472058BCF0023D1F3C8
:100CC000D93349F43FEF87EE93E0315080409040B4
:100CD000E1F700C000008D2F0E9417057ACF8C2FFE
:100CE00086958695837069F0813009F072CF8D2FDB
:100CF0009C2F9370111102C080E090E00E94B223FB
:100D000068CF8D2F9C2F9370111102C080E090E06E
:100D10000E948D235ECF612F8D2F0E94C40459CF76
:100D20008C2F8370A1F5111154CF4D2F429546950C
:100D30004770440F440F2D2F2F7030E0042E02C057
:100D4000220F331F0A94E2F790E080E0D4FF09C03D
:100D50008FE090E002C0880F991F4A95E2F78095D6
:100D60009095C695C695C370822B932BC23049F0DF
:100D700058F4C13019F00E941A082BCF0E941108B4
:100D800028CF0E94230825CF0E940E0822CF8695E7
:100D9000112311F08C2F8170882309F41ACF4D2F65
:100DA000429546954770440F440F2D2F2F7030E029
:100DB000042E02C0220F331F0A94E2F790E080E075
:100DC000D4FF09C08FE090E002C0880F991F4A95B8
:100DD000E2F780959095C695C695C370822B932BAC
:100DE000C23049F058F4C13019F00E948508F1CEA4
:100DF0000E947C08EECE0E948E08EBCE0E94320844
:100E0000E8CECF70112329F08C2F0E944A088D2F35
:100E100032CF8D2F0E9472058C2F0E945A08D9CE96
:100E2000D23F41F160F4D03FB9F0D13F81F01123BE
:100E300009F446C00111B3CE8C2F8F711FC0D33F70
:100E400001F1D43FA1F78091430682FD24C08C2F8D
:100E50008F71112311F312C0112341F0053008F0F6
:100E6000B8CE8C2F8F710E946C08B3CE063008F07C
:100E7000B0CEF7CF8C2F8F711111CFCF0E944A08BF
:100E8000A8CE112329F08C2F8F710E943E08A1CE8D
:100E90000E9439089ECE112349F0CF718C2F0E94F9
:100EA0004A0863E08C2F0E94030D93CE81E00E94DC
:100EB000210D023008F48DCE82E00E94210D89CEF2
:100EC000002359F0D93309F006CFEFEFF7EE23E016
:100ED000E150F0402040E1F7FCCE8C2F8F719DCF88
:100EE0000F931F93CF93DF93EC01688179818D81FC
:100EF0000E944D098C010E9497080E940D08B801BC
:100F0000CE010E947905DF91CF911F910F91089535
:100F1000CF93DF93EC018C81882399F0CE010E945E
:100F2000DE03811111C00E94360C882351F08D819F
:100F3000882339F08091430682FF03C082E00E943B
:100F4000210DDF91CF910895CE010E947007CE014F
:100F50000E94AF03F6CF90E080E00E948D2390E0E6
:100F600080E00E94B2230E945D0C0E94F10C0E945E
:100F700099210E947D2108950E94B0240E94AB0710
:100F800008950E944D0C0E94BC07089592959F7091
:100F9000963091F058F4925F9F70923058F4803FF1
:100FA00019F030F4883E30F481E008959A5FF4CF70
:100FB000843FD1F380E00895883EB0F3813FD1F7BC
:100FC000F3CFFC012481222339F0808191810E949A
:100FD00042090E94C607089580E00895A6E0B0E0A7
:100FE000E4EFF7E00C940D2E2696E2E00C94292E07
:100FF000A7E0B0E0EEEFF7E00C940D2E2796E2E0CC
:101000000C94292E08950E94020808950E94030856
:101010009093530380935203089508950E94060805
:1010200008952091520330915303822B932B0E94F9
:10103000060808952091520330915303822393238D
:101040000E9406080895209152033091530382278D
:1010500093270E94060808950E94020808950E949E
:101060002C0808950E942F089093510380935003F9
:10107000089590E080E00E943208089521E030E079
:10108000A90102C0440F551F8A95E2F7CA010E94C8
:101090003208089521E030E002C0220F331F8A9504
:1010A000E2F78091500390915103822B932B0E9481
:1010B0003208089521E030E002C0220F331F8A95E4
:1010C000E2F720953095809150039091510382234F
:1010D00093230E943208089521E030E002C0220FDD
:1010E000331F8A95E2F78091500390915103822734
:1010F00093270E94320808952091500330915103A4
:10110000822B932B0E943208089520915003309136
:101110005103822393230E943208089520915003A3
:1011200030915103822793270E9432080895089531
:10113000262F277091E001C0990F2A95EAF723E046
:10114000769567952A95E1F7660F771F660F771FEB
:10115000FA01E60FF71F50E040E0682F70E0819140
:10116000DF0111979B01042E02C0369527950A9442
:10117000E2F7217021952827292328272C934F5FF8
:101180005F4F4430510559F70895A82FA77023E009
:10119000969587952A95E1F7880F991F880F991FD3
:1011A000FB01E80FF91F50E040E080E0219130E0C2
:1011B0000A2E02C0369527950A94E2F7217033274C
:1011C000042E01C0220F0A94EAF7822B4F5F5F4F73
:1011D0004430510559F70895262F963070F48F301A
:1011E00060F4682F70E08FE0989F600D711D1124EE
:1011F00040E253E0822F0E9498080895292F9630EC
:1012000068F48F3058F490E060E273E03FE0239F91
:10121000800D911D11240E94C508089580E0089555
:10122000B0E0A0E0E6E1F9E00C94062E7C0100912C
:101230005003109151038091520390915303082B56
:10124000192BCFE0D0E0CC24C394D12CBC2EC60106
:101250000C2E02C0880F991F0A94E2F78023912375
:10126000892B49F4219790F7B12C8B2DCDB7DEB7A0
:10127000E9E00C94222EB7018C2F0E9438100197C0
:1012800089F3F3CFCF93DF93EC010E941009BE01E5
:101290000E943810DF91CF9108951F93CF93DF9371
:1012A000EB0190911F03992339F0CB010E94420971
:1012B000DF91CF911F910895882369F0CB010E949F
:1012C0001009182F682FCE010E94EC08BE01812F53
:1012D0000E943810EDCFCB010E94FE08182FF6CFE8
:1012E0001F93CF93DF93C091540317E08091550370
:1012F0008C1304C0DF91CF911F910895D0E01C9F03
:10130000F0011D9FF00D1124EA5AFC4F208131811C
:10131000428153816481758186810E94F8072196FC
:10132000C770E4CF20918E0330918F0340919003DA
:101330005091910360919203709193038091940373
:101340000E94F8070895CF93DF9380919403807FE4
:1013500009F04DC080919303882309F448C0E091BF
:10136000540350915503C0918F03D0918E03609127
:1013700090037091910347E05E17C9F18E2F90E0C2
:10138000E49FF0011124EA5AFC4F2481222391F1B9
:10139000489FF001499FF00D1124DF01AA5ABC4F6C
:1013A00011962C9111972C1325C02C912D1322C02E
:1013B00015962C91159721111DC012962D913C91D7
:1013C000261B370B283C3105A8F4809194038F70BD
:1013D000806180939403E45AFC4F80818F70806118
:1013E00080838EE893E00E9488070E947009DF9155
:1013F000CF910895FC013196E770BECF482F209120
:1014000054039091550357E0291302C080E00895DA
:1014100030E0529FF001539FF00D1124EA5AFC4F27
:101420008181681306C08081481303C085818111C2
:10143000EECF2F5F3F4F2770E7CFA4E1B0E0E3E2AC
:10144000FAE00C94032E8C0186E0F801DE011F9671
:1014500001900D928A95E1F7F8018481E5809EE87C
:10146000A92E93E0B92E9091920391111FC0882369
:10147000D1F0EE20A9F0C8010E94E107F82E8823E0
:1014800079F087E0F801D50101900D928A95E1F796
:10149000C5010E94BB040E94A3090E9492095FC07B
:1014A000C8010E948807FF24F39459C0C080D180EE
:1014B00082809380F0909303209190033091910368
:1014C000A401421B530BFF2009F4F9C0483C51050D
:1014D00008F0A7C0882309F442C090918F0380913F
:1014E0009403282F207F09F05CC09D1116C09091B5
:1014F0008E03C91212C0E1104EC08F7080618093BC
:1015000094030E9492098EE893E00E9488078091DC
:101510009403F8018683F12C22C0E1103CC06D2DAC
:101520008C2D0E94FE096D2D8C2D0E94FE09E82E47
:101530008111F1CFCF86D88A8F8598890E94420980
:10154000292F22952F70243078F49F702230A8F034
:101550009923B9F0F8019681907F99F4FE2C8F2D94
:101560006496ECE00C941F2E2A5F2F70223068F0F6
:10157000C8010E948807EF2CF1CF992311F088232E
:1015800069F3805E883050F3F3CF803F38F3815F9A
:10159000833070F7E3CF809194038160809394034C
:1015A000BACF9D1113C090918E03C9120FC0E110E4
:1015B0000DC08683C8010E94880787E0F801AEE865
:1015C000B3E001900D928A95E1F767CFC8010E94C0
:1015D000E107882309F464CFEE2009F461CF8091FC
:1015E0009403803288F020918E0330918F033987E5
:1015F00028879B868A86909192039C871D868E877A
:10160000CE0108960E94880787E0F801AEE8B3E0B3
:1016100001900D928A95E1F70E94A3090E94920918
:1016200042CF90919403292F207FA1F4682D9A8AAC
:10163000898AA6017A899E2D0E94EE078EE893E0A2
:101640000E94880787E0F50111928A95E9F70E94C8
:10165000920961CF882309F482CF80918F038D1185
:1016600010C080918E03C8120CC0E1100AC096838E
:10167000C8010E94880787E0F50111928A95E9F771
:101680006ECFC8010E94E107882309F409CFEE203C
:1016900009F406CF80919403803208F4B5CF2091ED
:1016A0008E0330918F033A8329839C828B829091A1
:1016B00092039D831E828F83CE010196A3CF483C67
:1016C0005105B8F5882309F4EECEFE2CEE2009F47E
:1016D000E7CE80918F038D111EC080918E03C812BA
:1016E0001AC08091940380FD0DC0982F907F51F017
:1016F0008683903F09F45ECF982F907F905F8F7024
:10170000892B57CF87E0F801AEE8B3E001900D9246
:101710008A95E1F724CFC8010E94E107811174CFB7
:1017200080919403816080939403C8010E9488078C
:1017300016CF682D9A8A898AA6017A899E2D0E94E1
:10174000EE0787E0F50111928A95E9F7A6CEAEE0A3
:10175000B0E0EDEAFBE00C940C2E288739874A872D
:101760005B876C877D878E87CE0108960E941D0A55
:101770008823B1F06C85662341F0288539854A8538
:101780005B857D858E850E94F80717E08091540364
:101790009091550389133DC02E96E3E00C94282EBA
:1017A00087E0FE013896DE01119601900D928A9530
:1017B000E1F78C85882349F32091550330E0C90176
:1017C000019687709927409154034817190699F09C
:1017D00097E0929FD001939FB00D1124AA5ABC4F5D
:1017E000FE01319601900D929A95E1F78093550391
:1017F0000E947009CACF0E94C1071092550310922F
:10180000540387E0EEE8F3E0DF011D928A95E9F7E3
:10181000BCCF819FC00111248A5A9C4F0E941D0A8F
:10182000882309F4B9CFE09154031E9FF0011124DD
:10183000EA5AFC4F20813181428153816481758154
:1018400086810E94F8078091540390E0019687708A
:101850009927809354039ACF8091BD0386958695EE
:10186000869508958091BD03877008959091BD037A
:10187000977081E009F480E008958091E90308956C
:101880009091E903892B8093E903089580959091C5
:10189000E90398239093E90308951092E9030895CA
:1018A0009091E803892B8093E803089580959091A7
:1018B000E80398239093E80308951092E8030895AD
:1018C00008950E94600C08959091BE03292F28234B
:1018D00031F0809589238093BE030E94610C0895A6
:1018E00008950E94700C08959091BF03292F28231A
:1018F000281729F0982B9093BF030E94710C08952C
:101900009091BF03292F282331F08095892380935C
:10191000BF030E94710C08958091BF03882329F0B2
:101920001092BF0380E00E94710C0895CF93C09184
:10193000E9038091E803C82B8091BF03882331F02D
:10194000C82B0E94D72381110E948C0C8C2FCF9121
:101950000895CF93DF93C0915E02D0915F020E9401
:10196000960C8883C0915E02D0915F0248E050E0FF
:1019700065EB73E0CE010E943D2E892B59F088E083
:10198000FE01A5EBB3E001900D928A95E1F7CE013F
:101990000E946623DF91CF910895CF93DF93C0918A
:1019A0005C02D0915D020E94960C8983C0915C021A
:1019B000D0915D0240E250E065E973E0CE010E9403
:1019C0003D2E892B59F080E2FE01A5E9B3E001909C
:1019D0000D928A95E1F7CE010E947123DF91CF919C
:1019E000089580917A02882339F08091420687FF1A
:1019F00003C00E94CD0C08950E94A90C089508957B
:101A00000E94FF0C08959091430692FF11C098E048
:101A1000899F90011124622B6093BD030E944A08A4
:101A20008091BD038695869586950E94000D089548
:101A30000E944A0808951092BD0380E00E94000DA4
:101A400008959091BD03809589238093BD03282F2D
:101A5000277069F4891759F09091430692FF07C0E7
:101A60008695869586950E945A080E941B0D0895BA
:101A70009091430692FB222720F9281769F080FBFA
:101A800092F99093430680914206909143060E94FA
:101A9000800D82E00E94210D08958091430682FB13
:101AA000882780F991E089270E94380D089581E008
:101AB0000E94380D089580E00E94380D08956FEF60
:101AC0007FEF90E080E00E949F2E089590E080E0FC
:101AD0000E946B2E21E0863E9E4F09F020E0822F6F
:101AE000089582E090E00E94632E089583E090E0E4
:101AF0000E94632E089584E090E00E946B2E08956A
:101B0000BC0184E090E00E949F2E0895AB01BC01CF
:101B10008FE090E00E94932E0895AB01BC0183E119
:101B200090E00E94932E089560E070E0CB010E9447
:101B30008D0D089560E070E0CB010E94860D0E943B
:101B4000940D0895A8E0B0E0E8EAFDE00C940D2EB5
:101B500066EE7EEF90E080E00E949F2E60E082E0E3
:101B600090E00E94812E81E090E090935303809357
:101B7000520361E083E090E00E94812E60E074E116
:101B800084E090E00E949F2E60E086E090E00E945A
:101B9000812E60E087E090E00E94812E40E050E0DE
:101BA000BA0188E090E00E94932E60E084E290E029
:101BB0000E94812E60E087E190E00E94812E60E02B
:101BC0008CE090E00E94812E60E08DE090E00E9429
:101BD000812E19821A821B821C821D821E821F8204
:101BE000188648E050E068E170E0CE0101960E945E
:101BF000712E40E050E0BA0180E290E00E94932E06
:101C00000E949A0D2896E2E00C94292E0E94A20DC3
:101C10000895682F8EE090E00E94812E0895A6E03E
:101C2000B0E0E5E1FEE00C940B2E0E949D258C01B6
:101C30008091EA039091EB038017910781F019825C
:101C40001A820E949D25682F49815A81792F80E050
:101C500090E00E948B041093EB030093EA03269616
:101C6000E4E00C94272E0E94A9256093FC03709356
:101C7000FD038093FE039093FF036093F80370933A
:101C8000F9038093FA039093FB0308950895089550
:101C90000E94460E089508950E944B0E08958EE20C
:101CA00091E10E9499120E94470E0E94480E0895E9
:101CB00081E008950E94580E08950E94580E0895DC
:101CC000089508950E94600E0E94610E08950E947A
:101CD000660D811102C00E94060E0E94710D809354
:101CE00000040E947B0D90934306809342060E945D
:101CF0000A1F0E94760D90E00E940E08809150030A
:101D0000909151030E942F0808950E9494250E94EB
:101D1000F1110E94670E0E945F040E942C1B0E941A
:101D20004C0E0895A6E0B0E0E8E9FEE00C94012E28
:101D30000E945A0E81110CC00E940F0E0E94701A50
:101D40000E94BB210E9472042696EEE00C941D2E88
:101D50000E9407122CEE822E23E0922E640110E0E6
:101D6000F601E190F1906F01812F0E9438111F5F01
:101D7000163009F44EC0E816F90691F3809100047C
:101D800081FD0E9441110E945D0E682E10E0812F9E
:101D90000E9438117C01F401A190B1904F018A1585
:101DA0009B0589F100E0CC24C394D12CAE24BF2440
:101DB000C5018C219D21892BE9F077247394C701FB
:101DC0008C219D21892B09F4712C662071F00983E7
:101DD0001A830E949D25682F8B839C8349815A8199
:101DE000792F81E0972D0E948B04472D602F812F42
:101DF0000E9490150F5FCC0CDD1C0F30C9F6F4016A
:101E00003297F182E0821F5F163009F60E94330E8E
:101E100095CFE816F90609F0B1CF8ECF1F93CF9377
:101E2000DF930E943D10EC01C11580E5D807F0F565
:101E3000C11580E4D80708F09CC0C03ED10520F54C
:101E4000CD3CD10508F082C0C83AD10578F4C53A36
:101E5000D10508F073C0C130D10519F1209709F1FF
:101E6000C430D105F0F4D0E0C0E01BC0C33CD105C4
:101E7000D0F7C85AD0E0CC0FDD1FC954DD4F099010
:101E8000D881C02DD4640DC0C11580E2D80708F0F8
:101E9000D1C0C11581E0D80708F05AC0C83ED105AD
:101EA00010F7CE01DF91CF911F910895C03682E5E2
:101EB000D80718F5C03482E5D80708F06BC0C032E7
:101EC00082E5D80708F05FC0C11582E5D80708F49D
:101ED00097C02C2F2695269580E2289F90011124EB
:101EE0008C2F8370C1E0D0E002C0CC0FDD1F8A953B
:101EF000E2F7C22BD32BDD68D4CFC03A82E5D807F6
:101F000060F4C03882E5D80708F459C0CF71D0E03A
:101F1000DC2FCC27C46FD06AC4CFC03C82E5D80781
:101F200008F462C0C03E82E5D80708F09CCFDC2FE1
:101F3000CC27CC27DF71C06FD06AB3CFC55AD0E0B1
:101F4000C351DD4FC881D0E0D064ABCFD065A9CFFD
:101F50008D2F0E94DF10182FCE0199270E943D106F
:101F6000C12FD0E0DC2FCC27CC27DF71C82BD92B99
:101F700098CFCE0199270E943D10CC27DF70C82B47
:101F8000D92BD06A8ECFCF71D0E0DC2FCC27C16F98
:101F9000D06A87CF2C2F26952695277080E2289F20
:101FA000900111248C2F8370C1E0D0E002C0CC0FCF
:101FB000DD1F8A95E2F7C22BD32BDC6872CF2C2F62
:101FC00026952695277080E2289F900111248C2F5A
:101FD0008370C1E0D0E002C0CC0FDD1F8A95E2F72C
:101FE000C22BD32BDA685DCF8C2F8F710E94DF104C
:101FF000C82FD0E0DC2FCC27CC27DF71D06251CFA7
:102000008C2F8F710E94DF1055E0D695C7955A9599
:10201000E1F7CF70D0E0DC2FCC27282F30E084FF11
:1020200005C044E0220F331F4A95E1F7C22BD32BA2
:10203000D06937CF8D2F8F710E94DF10182FCE01FE
:1020400099270E943D10C12FD0E0DC2FCC27CC2750
:10205000DF71C82BD92BD2CF462F763030F46F30BA
:1020600020F4672F0E945603089590E080E00895C1
:102070000E942C100E940E0F089582389105B9F12C
:10208000B0F48133910509F47DC048F4893291059B
:1020900009F46DC08A32910509F47BC00895853337
:1020A000910509F45FC08933910509F10895833ED4
:1020B0009105D9F138F4803E910529F1823E9105D0
:1020C00079F10895863E9105D9F1873E910509F48D
:1020D0003EC0843E910541F52091430621FF24C076
:1020E0008091420684FD19C087EE90E0089520910A
:1020F0004206237009F05AC02091430623FF14C002
:1021000089E290E008952091420620FD38C0309188
:10211000430630FF09C024FF43C090E080E00895EB
:102120002091420622FDF7CF08952091420622FD1C
:102130003AC03091430630FD39C024FFF5CFEDCFD2
:102140002091420623FFF0CF24FDE7CFCDCF209191
:10215000420623FD2EC03091430631FFEECF84EEC0
:1021600090E008952091420625FFDECFC9CF20914F
:10217000420625FD21C02091430623FFD5CF89E3E8
:1021800090E0D2CF2091420626FFCECF8AE290E0A7
:1021900008952091420626FFC7CF81E390E008957D
:1021A00083EE90E0089582EE90E0089580EE90E056
:1021B000089586EE90E0089585E390E0089590916B
:1021C000420692FF10C041E0282F2471243009F00C
:1021D00040E031E0282F2871283009F030E0431723
:1021E00011F02CE0822793FF10C041E0282F2471CA
:1021F000243109F040E031E0282F2871283109F01E
:1022000030E0431711F02CE082273091430630FF75
:1022100010C051E0282F2171213009F050E041E039
:10222000282F2871283009F040E0541711F029E0D8
:10223000822731FF10C041E0282F2171213109F0A0
:1022400040E031E0282F2871283109F030E04317B1
:1022500011F029E0822794FD877E089580E008959B
:1022600008950E943011089508950E943411089530
:10227000E82FF0E0EE0FFF1FE05BF94F80819181C6
:102280000895089580EA8A95F1F7089500C00895A9
:102290000E9442110895F894E82FE295EF70F0E063
:1022A00031A1282F2F7081E090E001C0880F2A957E
:1022B000EAF7982F9095932391A392A1892B82A35B
:1022C000789408950F931F93CF93DF93CFEFD2E0CD
:1022D00089918F3F11F00E944B1183E0C530D807E0
:1022E000B9F7C0EFD2E00FEF12E089918F3F11F004
:1022F0000E944B110C171D07C1F7DF91CF911F9161
:102300000F910895AF92BF92DF92EF92FF920F93D9
:102310001F93CF93DF938C01D62EC62FD0E0CE0132
:1023200081509D4F7C01FC0120812F3F09F44CC05E
:10233000F894E22FE295EF70F0E031A12F7081E088
:1023400090E001C0880F2A95EAF7932F982B91A36C
:1023500092A18095892382A378940E944611E0EF90
:10236000F2E041E050E0B12CA12C21912F3FB1F1DE
:10237000A22FA295AF70B0E090968C9190E02F7054
:1023800002C0959587952A95E2F780FD27C0CA017E
:10239000A82AB92A440F551F82E0EF3FF80729F712
:1023A000F70180818F3F11F00E944B1161E0A11471
:1023B000B10409F460E08D2D0E944811CC0FDD1F9F
:1023C000C00FD11FB982A882DF91CF911F910F91C9
:1023D000FF90EF90DF90BF90AF90089590E080E085
:1023E000D7CF0E9462118CE0E0E5F6E0DF01982F84
:1023F0001D929A95E9F7E4E4F6E0DF011D928A95D3
:10240000E9F786E00E9442120E9431110895ACE083
:10241000B0E0EDE0F2E10C940A2E8E010F5F1F4F49
:102420008CE0F80111928A95E9F7F12C6F2DC80123
:102430000E948211F394F6E0FF12F8CF4CE050E0D6
:10244000B80184E496E00E943D2E21E0009709F453
:1024500020E0892B41F08CE0F801A4E4B6E0019083
:102460000D928A95E1F746E060E576E084E496E037
:102470000E944312182F0E943511812F2C96E5E0FF
:102480000C94262E0895B0E0A0E0E9E4F2E10C946B
:10249000072E6C017B01042FC22F222379F081E0EB
:1024A000809303040E949D2590930204809301046D
:1024B00080E0CDB7DEB7E8E00C94232ED091030482
:1024C000DD23B1F380910104909102040E94B525AF
:1024D000039770F310E0000F111FA801B601C701A8
:1024E0000E943D2E892B31F0A801B601C7010E9440
:1024F0004A2ECD2F109203048C2FDBCF0E9464282C
:102500000E94850E0E94712808950E9476280E94DC
:10251000920E0E94902808950E9436250E944A2813
:102520000E944F0E0E947E120E9485120E94620E2F
:10253000FBCF90931903809318030895EF92FF92B5
:102540000F931F93CF93DF93EB01E82FD1110EC0B0
:10255000442321F0F0E0E459FC4FE4916E2F7E2FEC
:102560008E2FCDB7DEB7E6E00C94252E0D2F10E0B0
:10257000282F30E0442329F024593C4FF9012491BD
:1025800030E0F6E0CF9FC0011124EFEFF0E0BF0193
:102590000E948E2DAB018C2F90E0880F991FA5E52E
:1025A000A49FB001A59F700D1124861B970B982F37
:1025B000990F980FBF01601B710B629FD001639F41
:1025C000B00D729FB00D11248B2F9D9FB00111246F
:1025D000672F7727EF01C61BD70BBE01629FE00173
:1025E000639FD00D729FD00D11247F01E91AF1086D
:1025F000E09EB001E19E700DF09E700D1124672FDA
:102600007727E61BF70BE29F8001E39F100DF29FF7
:10261000100D1124E12F722F4230510599F048F42A
:102620004115510569F04130510581F0EB2F8D2F97
:1026300007C04430510569F080F046305105B1F7CC
:102640006E2F8FCFE22F7B2F812FFACFE22F7D2F9E
:10265000F7CFEB2F822F712FF3CF7B2F822FED2F10
:10266000EFCF41E00E949E12089530E020E0869F67
:10267000212D969F200D311D1124C9010895AC0113
:102680008230910508F408959FEF413E8EE158078E
:1026900040F49A0195E0369527959A95E1F798E0F0
:1026A000920F61E0E62FE90FFF27FF1F9F0135958D
:1026B0002795822F229FF001239FF00DF00D11240A
:1026C0004E175F0738F49FEF920F961758F78FEF6A
:1026D000860F08952F3FE9F361E0620FF6CFE82FF0
:1026E00086FDE0952E2F2F7086FD2F5FE695E695EF
:1026F000E695E670F0E0EB5FFC4F9181929F902DA4
:10270000212D112492959F702295207F922B20815C
:10271000920F87FD919580E8890F0895622F0895A3
:10272000E42FF0E0EE0FFF1FE65AFE4F6081621BC0
:102730000895E42FF0E0EE0FFF1FE55AFE4F608191
:10274000621B0895EF920F93972F23E0029FB00131
:102750001124759567956E0D792F0F91EF9008955F
:102760000F931F9310E0F801EE0FFF1FE65AFE4F84
:1027700090819C5597FD9195000F111FF801E55A26
:10278000FE4F00810152110B2003F001219FF00D3B
:10279000112408E310E0091B110997FD139540036C
:1027A0009001419F300D1124E20FF31F9F01220F72
:1027B000331F2E0F3F1F37FF02C021583F4F220FFC
:1027C000232F221F330B620F1F910F910895409505
:1027D000282F429F412D1124842F0895409520E4F5
:1027E000429F412D1124640F0895EF92FF920F93A1
:1027F000970195E0099F200D311D11242F3F3105D0
:1028000019F010F02FEF30E02095382F320F08F438
:102810003FEF832F0F91FF90EF900895EF92FF927B
:102820000F931F930E0D1F2D111DF90137FF03C0CC
:10283000F195E195F10924E0EE0FFF1F2A95E1F7EC
:10284000EF3FF10519F014F0EFEFF0E09A0157FFB8
:1028500003C031952195310994E0220F331F9A95D9
:10286000E1F72E173F070CF4F901E00FF11FEF3FDE
:10287000F10519F010F0EFEFF0E0E095282F3E2F72
:10288000230F08F42FEF822F1F910F91FF90EF90ED
:102890000895EF92FF920F939701201B31092F3F6C
:1028A000310519F010F02FEF30E0322F3095482F1E
:1028B000430F08F44FEF842F620F0F91FF90EF90BA
:1028C0000895EF92FF920F939701201B31092F3F3C
:1028D000310519F010F02FEF30E02095382F320F2E
:1028E00008F43FEF832F0F91FF90EF9008959091A0
:1028F0000404892B809304040895FC019B01009734
:1029000029F480E077FF2BC080E80895AC0197FFA1
:1029100004C044275527481B590BB901640F751F84
:1029200037FD10C0241B350BC901A5E0880F991F86
:10293000AA95E1F70E94A22D80E2861BF7FF0FC047
:1029400081950895CB0165E0880F991F6A95E1F79D
:10295000BA01621B730B0E94A22D80E6EECF089590
:10296000EF920F931F93CF93DF93D62FC72F182F7C
:10297000C9010E19010FBA010E947D14081B202FF6
:10298000219F212D1124822F6D2F7C2FDF91CF913C
:102990001F910F91EF9008950F93CF93DF93D72F4F
:1029A000C82FC901BA010E947D14682F600F7D2FC6
:1029B0008C2FDF91CF910F910895EF920F93CF93CA
:1029C000DF93D72FC82FC9010E19BA010E947D14B9
:1029D000602F681B7D2F8C2FDF91CF910F91EF908F
:1029E000089548E050E068E170E08CE596E00E94D0
:1029F000712E1092040408950E9431130895ECE59D
:102A0000F6E085E1808380917B0290917C02A09129
:102A10007D0281839283A3838FE784838FEF8583F5
:102A20000E94F114089580E008950F931F93CF93AF
:102A3000DF93C82FD62F8A010E9413159FE0C99FEC
:102A4000B001112460507F4F6D0F711DFB0190810B
:102A50009F3F29F0F801E80FF11D90838F5FDF9110
:102A6000CF911F910F910895E0911303F0911403FA
:102A700009950895E0910F03F091100309950895C9
:102A80000F931F93CF93DF93EC01FC01EA5FFD4F9F
:102A900080816823D1F100915E0610915F0640911C
:102AA0005D06E42FF0E0609166027091670285E0B8
:102AB00098E0689F9001699F300D789F300D112438
:102AC000275E394C3093670220936602CF018C5405
:102AD0009F4F68E671E00E94A22D8E1B9F0B97FD11
:102AE00003969595879595958795230F2370642F69
:102AF000289F600D1124702F812F0E94FC14462FF7
:102B0000282F672FCE010E943A15DF91CF911F9198
:102B10000F910895E0911103F09112030995089522
:102B2000CF92DF92FF920F931F93CF93DF93CDB796
:102B3000DEB728970FB6F894DEBF0FBECDBF182FB3
:102B4000062FF42E0E94580E882309F44CC0FF2053
:102B500009F457C0AE014F5F5F4F602F812F0E9475
:102B60001515F82E0F2D10E080910504800F912F80
:102B7000911D09976CF188E090E06C01C01AD10AB0
:102B8000B8016A5F7B4FA60186E094E00E944A2E5E
:102B9000B801625F7B4FA6018EE094E00E944A2E4E
:102BA000A601440F551FB801660F771F625E7B4F69
:102BB0008EE194E00E944A2EB8016A5E7B4FA60126
:102BC00086E194E00E944A2E88E08F1980930504E4
:102BD00010910504DE01119640E0842F810FF4125C
:102BE00012C08093050428960FB6F894DEBF0FBE7E
:102BF000CDBFDF91CF911F910F91FF90DF90CF90CC
:102C00000895F12CAFCF5D91252F30E090E0BC010D
:102C10006B5F7B4FF901EE0FFF1FE65AFE4F0081FD
:102C2000FB010183220F331FF901E55AFE4F20817A
:102C3000FB012187518B880F991FFC01EB5FFB4F34
:102C4000128E118E4F5FC9CF81E0089592E1899F66
:102C5000802D1124980F973508F096E50895B0E07F
:102C6000A0E0E5E3F6E10C94012E5C014B01FC01D0
:102C700080810E942616C82F192F609160066695E4
:102C800080916406909165060E943513F82ED0E07D
:102C9000C11748F081E0163508F080E0CDB7DEB707
:102CA000EEE00C941D2EFE01EA5FFD4F8081F501E0
:102CB00091818923C9F1CE01880F991F80509F4FC0
:102CC000FC01E65AFF4F2081422F4C55550B6A01FB
:102CD000855A9F4FFC018081282F2152330B3901E7
:102CE000449F9001459F300D300D1124669CC0011A
:102CF000679C900D900D1124820F931F0E943F132B
:102D0000082F60915D0670915E0680915F06EF2C42
:102D10009301A601F40109950E94FC14462F282F67
:102D2000672FCE010E943A152196B2CF60EB74E175
:102D30000E942F16089562EA73E10E942F160895EB
:102D40006DED74E10E942F160895B0E0A0E0EBEA6B
:102D5000F6E10C94062E6C017B01FC0180810E943F
:102D60002616C82F192F609160066695809164061B
:102D7000909165060E943513B82ED0E0C11748F037
:102D800081E0163508F080E0CDB7DEB7E9E00C94BD
:102D9000222EFE01EA5FFD4F8081F6019181892399
:102DA00011F1CE01880F991F80509F4FFC01E55A09
:102DB000FF4F20812152330B865A9F4FFC014081E7
:102DC0004C55550B60915D0670915E0680915F06D3
:102DD0000B2DF70109950E94FC14462F282F672F11
:102DE000CE010E943A152196C9CF6CEC74E10E9485
:102DF000A5160895B0E0A0E0E0E0F7E10C94072EFE
:102E00007C018B01FC0180810E942616C82FD92EDF
:102E1000609160066695669521E0620F08F46FEF99
:102E200080916406909165060E943513C82ED0E00B
:102E3000CD1550F081E095E59D1508F480E0CDB703
:102E4000DEB7E8E00C94232EFE01EA5FFD4F80819F
:102E5000F7019181892391F060915D0670915E0682
:102E600080915F062C2D4C2FF80109950E94FC14CF
:102E7000462F282F672FCE010E943A152196D8CFD2
:102E80006EE873E10E94FA16089560E973E10E940A
:102E9000FA16089569E973E10E94FA160895B0E000
:102EA000A0E0E5E5F7E10C94032E5C016B01FC0169
:102EB00080810E942616C82FF92E609160066695C3
:102EC000669580916406909165060E943513182FCF
:102ED00080E4810F0E946F1390E8992E980E812F45
:102EE0000E946F1320E8822E880ED0E0CF1550F09C
:102EF00081E095E59F1508F480E0CDB7DEB7ECE002
:102F00000C941F2EFE01EA5FFD4F8081F501918137
:102F10008923A1F060915D0670915E0680915F0645
:102F2000E12E0C2F282D492DF60109950E94FC1445
:102F3000462F282F672FCE010E943A152196D6CF13
:102F400060EB73E10E944F170895B0E0A0E0EBEA58
:102F5000F7E10C94062E8C017B01FC0180810E941C
:102F60002616C82FB92E2091600631E0230F08F4F1
:102F70002FEF30E050E040E06FEF7FEF80E090E037
:102F80000E94D82D6901D0E02C2FCB1550F081E0A4
:102F9000F5E5FB1508F480E0CDB7DEB7E9E00C9469
:102FA000222EFE01EA5FFD4F8081F8019181892385
:102FB00011F1409168064150042E000C550B47FF5B
:102FC0001CC0C6016091600621E0620F08F46FEF3B
:102FD0000E943513AC0160915D0670915E06809190
:102FE0005F06F70109950E94FC14462F282F672FD2
:102FF000CE010E943A152196C7CFFA01E859F94F40
:10300000818982130AC0FA01EE0FFF1FE859F94FB8
:10301000818D928D8C159D05A8F241505109CFCF1D
:1030200067EE73E10E94A51708956EEE73E10E94AA
:10303000A5170895AAE0B0E0E0E2F8E10C94FD2DB8
:103040008B832B015E834D83FB0180810E942616BA
:103050009A83F0916806FC83282F30E03A8729870D
:10306000C901880F991FFC01E65AFE4F6F01FB81D1
:103070008F2F90E09C012F5F3F4F38872F83EA818D
:10308000F985FE1740F081E0E63508F080E02A96E9
:10309000E2E10C94192EE985FA85EA5FFD4F808103
:1030A000F2019181892301F120905D0630905E0646
:1030B0002F8138852859394F39013B81398310E0F8
:1030C00029813C812317C8F020915F06129F112DA2
:1030D0001124B101812F0E94FC14462F282F672F45
:1030E00089859A850E943A1589859A8501969A87DD
:1030F000898792E0C90ED11CC2CFF30181913F01B3
:10310000F601A080A81ABB088180F3018781881A84
:103110009908AA9C9001AB9C300D300D1124889C1D
:10312000C001899C900D900D1124820F931F0E9465
:103130003F13082F6091600621E0620F08F46FEFE3
:10314000F301EE0FFF1FE856F640858996890E942D
:1031500035137C019401A501B101812FED81FE8120
:1031600009951B01F981FF5FF983182FA9CF2091E1
:10317000680631E0231B08F420E045EF53E1BC0171
:10318000822F0E941A1808952091680631E0231BAF
:1031900008F420E04EE054E1BC01822F0E941A188E
:1031A00008952091680631E0231B08F420E049E4EB
:1031B00054E1BC01822F0E941A18089541E654E19F
:1031C000BC0180E00E941A180895B0E0A0E0EBEE88
:1031D000F8E10C94072E7C01FC0180810E942616E8
:1031E000C82F192F60915D0670915E0680915F0671
:1031F0000E94FC14062FD72EC82ED0E0C11748F02D
:1032000081E0163508F080E0CDB7DEB7E8E00C9439
:10321000232EFE01EA5FFD4F8081F7019181892312
:1032200031F02C2D402F6D2DCE010E943A152196A4
:10323000E5CFB0E0A0E0EFE1F9E10C94072E8C01BE
:10324000FC0180810E942616C82FF92EE0905D06B1
:10325000D0915E06D0905F06609160066695669597
:10326000669580916406909165060E9435130E94D0
:103270006F13805887FD8195880F282F3D2D239F40
:10328000212D1124822F6E2D7D2F0E94FC14E62EFD
:10329000D72EC82ED0E0CF1550F081E025E52F15B0
:1032A00008F480E0CDB7DEB7E8E00C94232EFE01F1
:1032B000EA5FFD4F8081F8019181892331F02C2D47
:1032C0004E2D6D2DCE010E943A152196E4CFCF925E
:1032D000DF92FF920F931F93CF93DF938C01FC013A
:1032E00080810E942616F92EF801928191113DC02D
:1032F0006091600620E1620F08F46FEF8091640630
:10330000909165060E9435136AE070E00E948E2D50
:10331000892BF1F4409166025091670225E038E074
:10332000429FC001439F900D529F900D1124875ED4
:10333000994C9093670280936602890FF6E58F9F00
:10334000C0011124F8016181892F90E00E9440158D
:1033500081E0F5E5FF1508F480E0DF91CF911F9142
:103360000F91FF90DF90CF900895C82FD0E0CF2C21
:10337000D12CCC15DD0564F7F8016181CE010E94E6
:1033800040152196F6CFCF93C82F809164028C13FD
:1033900023C090915C0693702091650230E081E03B
:1033A0009217130609F480E0817080936302809184
:1033B000610690916202981739F08093620240E0B2
:1033C00060E080E00E948A15C23188F4EC2FF0E0C2
:1033D000ED54F14D0C94F72D81E0E6CF809163021E
:1033E000882359F040E060E080E00E948A1580E088
:1033F00004C081E692E00E94E518909161029F5F0F
:103400009093610281110CC082E0809360028091F0
:103410006302811105C0C11103C083E08093600283
:10342000CF91089581E692E00E941919E6CF81E6D6
:1034300092E00E949616E1CF81E692E00E9440174A
:10344000DCCF81E692E00E944517D7CF81E692E07B
:103450000E944A17D2CF81E692E00E949B16CDCF00
:1034600081E692E00E94F516C8CF81E692E00E94C4
:10347000A016C3CF81E692E00E94A017BECF81E6DE
:1034800092E00E946719B9CF81E692E00E9410187D
:10349000B4CF81E692E00E941518AFCF81E692E0AA
:1034A0000E94B718AACF81E692E00E94C418A5CF67
:1034B00081E692E00E94D118A0CF81E692E00E94BE
:1034C000DE189BCF81E008950E94621A0895FC01E6
:1034D000808181500E942616692F0E94641A0895E7
:1034E0004F925F926F927F928F929F92AF92BF9214
:1034F000CF92DF92EF92FF92CF9360912E04709162
:103500002F0480913004909131040E94C4256B01F6
:103510007C010E94A9254B015C0180922E049092AF
:103520002F04A0923004B0923104A0910504E5E08C
:10353000F4E08A2F90E04FEF5FEF60E070E04C190D
:103540005D096E097F09A9132AC080930504809143
:103550003204C0E0811108C080915C06C82FC3709E
:1035600019F0C82FC695C69580916002813009F484
:1035700040C0882339F1823009F44BC0833009F40C
:1035800053C0CF91FF90EF90DF90CF90BF90AF905E
:103590009F908F907F906F905F904F900895218DB6
:1035A000328D2901712C612C44155505660577056E
:1035B00020F481509F5F3296C6CF2C0D3D1D328F77
:1035C000218FF8CF10926102809264069092650676
:1035D000A0926606B092670689E2E5E0F4E0A8E60C
:1035E000B6E001900D928A95E1F781E08093600248
:1035F000C8CF8C2F0E94C319CC2319F2809160028E
:10360000823011F40E94260381E692E00E94671A3C
:10361000B8CFC093640280915C068370809365028A
:103620000E94341583E0E2CF8091040481110E944E
:10363000F114609164067091650680916606909120
:1036400067060E94C425603171058105910508F463
:1036500098CF1092600295CFE0910D03F0910E0388
:103660000995109268068FEF9FEF909382068093E2
:1036700081069093840680938306909386068093B8
:103680008506909388068093870690938A06809398
:10369000890690938C0680938B0690938E06809378
:1036A0008D069093900680938F0610920504909358
:1036B0001F0480931E049093210480932004909310
:1036C00023048093220490932504809324049093F0
:1036D00027048093260490932904809328049093D0
:1036E0002B0480932A0490932D0480932C0481E072
:1036F0008093040448E050E068E170E08CE596E0D7
:103700000E94532E1092040480915C068C7F11F469
:103710000E94FF140895CF93C82F882391F08091C1
:10372000320481110EC00E94C3191092640280916C
:103730005C068370809365020E94341583E0809359
:103740006002C0933204CF910895ECE5F6E09081D9
:1037500021E092279083109260020E9477140895CE
:1037600081E00E94A51B089590915C06937051F032
:10377000811109C0946090935C0610926002862FBC
:103780000E9477140895823110F09464F4CF282FAA
:10379000220F220F922BEFCF61E00E94B41B0895FD
:1037A000682F90915C069695969581E0890F8231FD
:1037B00008F081E00E94B41B089581E00E94D01BB4
:1037C0000895682F90915C06969596958FEF890FD6
:1037D00009F481E10E94B41B089581E00E94E11B7D
:1037E000089590915C06937061F080935D066093FC
:1037F0005E06493C08F048EC40935F06822F0E9429
:1038000077140895ACE5B6E01196EC911197F0E0CD
:10381000282F13964C91139712966C91CF0108960E
:103820000E94F11B089581E00E94021C0895ECE5BE
:10383000F6E09181282F43816281E92FE850FF0B48
:10384000CF010E94F11B089581E00E94171C08958A
:10385000ECE5F6E0628120E1620F08F46FEF918100
:10386000282F4381892F90E00E94F11B089581E069
:103870000E94281C0895ECE5F6E0628120E1621BBD
:1038800008F460E09181282F4381892F90E00E9405
:10389000F11B089581E00E943B1C0895ECE5F6E0E1
:1038A000438120E1420F08F44FEF9181282F62817C
:1038B000892F90E00E94F11B089581E00E944E1C28
:1038C0000895ECE5F6E0438120E1421B08F440E076
:1038D0009181282F6281892F90E00E94F11B089529
:1038E00081E00E94611C0895ECE5F6E0248130E15E
:1038F000230F08F42FEF24830E947714089581E0AA
:103900000E94741C0895ECE5F6E0248130E1231B4D
:1039100008F420E024830E947714089581E00E9437
:10392000831C0895A1E0B0E0E8E9FCE10C940B2EC3
:103930004983E82FF0E0EB5EFC4F808104E610E065
:1039400021E030E0AE014F5F5F4F880F0E94B92643
:103950002196E4E00C94272E462F6DEF0E94921CD6
:103960000895EF92FF920F931F93CF93DF93282F29
:1039700030E094EA899FE0011124CD5CDB4F84E2C2
:10398000F82E2B5E3C4FF901E080EE0C04E610E0CF
:1039900020E130E0AE016F2D8E2D0E94B926F0E1BE
:1039A000FF0E609684EBF812F1CFCDB7DEB7E6E0FC
:1039B0000C94252ECF93DF93C82F6BE00E94AC1C94
:1039C00040E06AE08C2F0E94921C8FE39CE90197F3
:1039D000F1F700C0000040E060E08C2F0E94921CD4
:1039E00040E061E08C2F0E94921C40E066E08C2F4A
:1039F0000E94921C60E08C2F0E94AC1CD0E040E042
:103A00006D2F8C2F0E94921CDF5FD231C1F740E0F6
:103A10006D2F8C2F0E94921CDF5FD432C1F740E0E3
:103A20006D2F8C2F0E94921CDF5FD43BC1F76BE09F
:103A30008C2F0E94AC1C41E06AE08C2F0E94921CEB
:103A400060E08C2F0E94AC1CDF91CF910895A4E020
:103A5000B0E0EDE2FDE10C94092EF62E042F122FBA
:103A60008635910508F047C0880F991F880F991F68
:103A7000BC0164557F4F44E050E0CE0101960E94A6
:103A8000342E898183702A8130E0482F50E064EA27
:103A9000869FC00111248D5C9B4FFC01E20FF31F38
:103AA0006081AB81EC806F110DC0BC016A0F711D8C
:103AB000FB016081601306C08E0D911DFC018081A9
:103AC0008117C9F064EA649FC001659F900D1124BD
:103AD0008D5C9B4F280F391FF901F082A80FB92F79
:103AE000B11D0C93FC01EE0DF11D108380579F4F0B
:103AF00021E0FC0120832496E6E00C94252EFF9221
:103B00000F931F93CF93DF93182F062FF42ED0E03F
:103B1000C0E02F2D402F612FCE010E94271D21963E
:103B2000C635D105B1F7CDB7DEB7E5E00C94262E4A
:103B3000A4E0B0E0EEE9FDE10C940A2EF62E042F8D
:103B4000122F24E0829FB001112464557F4F44E07E
:103B500050E0CE0101960E94342E9A817B81F72F8E
:103B6000F695F695F6956C81E62FE695E695E69541
:103B700077706770A92FA695A695A695B0E0977067
:103B800021E030E001C0220F9A95EAF78981982F51
:103B9000937044EA949FA00DB11D1124AC53BB4F08
:103BA000FF2009F442C09C91922B9C938370482F74
:103BB00050E024EA829FC00111248D5C9B4F8F0F3F
:103BC000911DDC01AF56BF4F9C9121E030E001C058
:103BD000220F7A95EAF7002369F1292B2C9324EA26
:103BE000249FC001259F900D11248D5C9B4FE80FF1
:103BF000F92FF11DEF56FF4F208181E090E001C0C9
:103C0000880F6A95EAF71123C1F0822B808384EA3A
:103C1000849FF001859FF00D1124EA52FB4F81E053
:103C200080832496E5E00C94262E922F90952C917B
:103C30009223BBCF20952923D1CF80958223E6CF35
:103C4000CF93DF9394EA899FE0011124CD53DB4F9A
:103C50009881992319F00E94B11C1882DF91CF91AD
:103C60000895EF92FF920F931F93CF93DF93082F46
:103C7000E82EF12CC4EACE9DF001CF9DF00D112469
:103C8000EA52FB4F80818823B9F00C9FE001112498
:103C9000CC53DB4F10E04991612F802F0E94921C82
:103CA0001F5F1231C1F784EA8E9DF0018F9DF00DE8
:103CB0001124EA52FB4F1082CDB7DEB7E6E00C9438
:103CC000252ECF930E94852680E00E94DA1C81E099
:103CD0000E94DA1C82E00E94DA1CC0E021E041E090
:103CE00061E08C2F0E94981DCF5FC635B9F780E048
:103CF0000E94311E81E00E94311E82E00E94311E2E
:103D0000CF91089580E00E94201E81E00E94201E35
:103D100082E00E94201E0895FA01811101C0FB017A
:103D2000099508951F93CF93DF93EC01FB01158153
:103D3000111110C00E943D0C8272FE01E052F84742
:103D4000E531F10508F049C0EB53F14D0C94F72D26
:103D50000E94B01B812FDF91CF911F9108954DEEEE
:103D60005BE16DED7BE10E948C1EF4CF4DED5BE1DC
:103D70006DEE7BE1F8CF44E25CE163E17CE1F3CFFF
:103D800043E15CE164E27CE1EECF4AE45CE167E3BD
:103D90007CE1E9CF47E35CE16AE47CE1E4CF40E722
:103DA0005CE16DE57CE1DFCF4DE55CE160E77CE166
:103DB000DACF4EE85CE16FE77CE1D5CF4FE75CE11D
:103DC0006EE87CE1D0CF81E00E94CC1BC3CF82E0C3
:103DD000FBCF85E0F9CF88E0F7CF11E0BBCF0E94A1
:103DE0005F0D089580E00E943811817008950E944F
:103DF00007128FEB9DE50197F1F700C000000E94CC
:103E000007120E94F21E882321F00E94EF1E0E94DA
:103E1000042608950E94F71E0895CF93DF93EB01C7
:103E200086319C4711F50E943D0C9D81992399F0A4
:103E30008A7A91E009F490E090931F06811109C0FD
:103E400089E20E9482240E94F10C80E0DF91CF91F0
:103E5000089585E3F6CF80911F06811104C089E2A1
:103E60000E949924F0CF85E3FBCF81E0EFCFCF9381
:103E7000DF93EC01FB018581882309F4D2C09E0108
:103E800030572332310508F0B2C00E947B0D909369
:103E9000430680934206FE01E150F047E232F1050D
:103EA00020F4E652F14D0C94F72D8091420681608A
:103EB0008093420693C080914306886080934306B6
:103EC0008DC0809142068260F3CF8091420684606B
:103ED000EFCF809142068860EBCF809143068160EE
:103EE000EDCF809143068260E9CF809142068061E8
:103EF000DFCF809142068062DBCF809142068064F2
:103F0000D7CF0E94C107809142068068D1CF8091AF
:103F100042068C60CDCF809143068360CFCF8091E5
:103F200042068E7FC5CF80914306877FC7CF8091A1
:103F300042068D7FBDCF809142068B7FB9CF8091A5
:103F40004206877FB5CF809143068E7FB7CF8091A1
:103F500043068D7FB3CF809142068F7EA9CF80919B
:103F600042068F7DA5CF809142068F7BA1CF0E9414
:103F7000C107809142068F779BCF80914206837F55
:103F800097CF809143068C7F99CF8091420682FB28
:103F9000992790F921E0922790FB82F990FB83F911
:103FA00087CF80914306982F909591708E7F892BB3
:103FB00090FB81F983CF90914206892F8F7B96FFEA
:103FC000806476CF0E94C10790914206892F97FBAB
:103FD00087F980586DCF81E00E94090E80914206DA
:103FE000909143060E94800D0E94C10780E0DF91FE
:103FF000CF91089580E0F0CF90914206892F8F7E77
:1040000094FF806155CF90914206892F8E7F90FF5B
:1040100081604ECF90914306892F877F93FF886000
:104020004DCF81E0E4CF282F35EB2303C0011124CD
:1040300097FF04C080589109892F089580589F4F99
:10404000FBCF8091260680FF0DC060916D0270E06D
:10405000660F771F6038710570F56115710569F19C
:10406000862F089581FF07C060916D0284E0689FEC
:10407000B0011124EFCF60916D0282FD0AC08091E2
:1040800025068823A9F020916C0260916D028217A9
:1040900010F088E0ECCF869FC001112433E0880F38
:1040A000991F3A95E1F7622F70E00E94A22DD2CFBE
:1040B00068E070E0D5CF8FE7089581E008958091A2
:1040C000260680FF0CC06091690270E075956795C7
:1040D000759567956115710549F1862F089581FFE2
:1040E00006C06091690270E075956795F3CF6091A5
:1040F000690282FD0BC0909124069923A1F0609182
:10410000680280916902961738F0682F70E0603875
:10411000710500F38FE70895899FC001112470E0B5
:104120000E94A22DF4CF61E070E0D7CF81E0089526
:104130009091290620912A06922B20912C06922BF1
:1041400020912B06922B31F098E09093250691E078
:10415000909324068D3C31F40E9421208195809318
:104160002A0608958E3C19F40E942120F8CF8F3C36
:1041700031F40E9421208195809329060895803D85
:1041800019F40E942120F8CF893D29F40E945F2074
:1041900080932B0608958A3D21F40E945F2081952B
:1041A000F7CF8B3D31F40E945F20819580932C06E0
:1041B00008958C3D19F40E945F20F8CF9FE2980F7C
:1041C000983070F4815D990B21E030E001C0220F3E
:1041D0008A95EAF780912806822B80932806089515
:1041E0008D3D31F4809126068160809326060895E6
:1041F0008E3D21F4809126068260F7CF8F3DB9F77E
:10420000809126068460F1CF409129068D3C59F4B7
:1042100080912A0687FF0DC010922A0641110BC01B
:104220001092250608C08E3C81F480912A0618164B
:104230009CF3442381F080912B0690912C06892BCE
:1042400009F05AC01092240608958F3C49F447FFA4
:10425000F0CF1092290680912A068111ECCFE0CF91
:10426000803D19F41416ACF3E4CF90912B06893DF0
:1042700029F41916F4F610922B06DBCF8A3D19F4B7
:1042800097FFD7CFF8CF90912C068B3D29F497FF5D
:10429000D0CF10922C06CDCF8C3D19F41916CCF34B
:1042A000C8CF9FE2980F983090F4815D990B21E080
:1042B00030E0B90102C0660F771F8A95E2F7CB01A3
:1042C000809590912806892380932806B2CF8D3D52
:1042D00031F4809126068E7F80932606AACF8E3DEC
:1042E00021F4809126068D7FF7CF8F3D09F0A1CF75
:1042F000809126068B7FF0CF08950E949D259C011A
:104300009091290680912A06982B21F0309323065C
:104310002093220690912B0680912C06982B21F059
:10432000309321062093200687E296E00E947F23A7
:10433000089586E0E7E2F6E0DF011D928A95E9F74D
:104340001092250610922406109226060895FC016C
:10435000828181110EC0838181110BC08481811102
:1043600008C091E08581811101C090E0892F8170A2
:10437000089581E0FCCFA6E0B0E0E1ECF1E20C941E
:104380000C2E86E0E7E2F6E0DE01119601900D9238
:104390008A95E1F71092290610922A0610922B06B0
:1043A00010922C068B819C81892B89F080912206AA
:1043B000909123060E94B525AC0190912506992382
:1043C000C9F180916E028417150608F440C08D81F2
:1043D0009E81892B91F080912006909121060E9468
:1043E000B525AC0190912406992309F46AC0809107
:1043F0006A028417150608F472C0BE016F5F7F4F12
:1044000087E296E00E94CA24811105C087E296E007
:104410000E94A72181110E947D2186E0FE01319634
:10442000A7E2B6E001900D928A95E1F72696E3E0C7
:104430000C94282E20916F028AE0289F900111246D
:104440002417350720F69F5F9093250602C09F3FF3
:10445000D1F71B81112359F00E9421209FEF1116E3
:104460000CF491E0899F802D1124809329061C81F2
:10447000112359F00E9421209FEF11160CF491E0B6
:10448000899F802D112480932A06809129068823F4
:1044900009F49DCF10912A06112309F498CF0E94A8
:1044A0001320882351F080932906812F0E94132026
:1044B000882329F080932A068ACF81E0F4CF81E017
:1044C000F9CF20916B028AE0289F900111242417D4
:1044D000350708F092CF9F5F9093240602C09F3F5C
:1044E000D1F71D81112359F00E945F209FEF111613
:1044F0000CF491E0899F802D112480932B061E815E
:10450000112359F00E945F209FEF11160CF491E0E7
:10451000899F802D112480932C0680912B0688235F
:1045200009F46BCF10912C06112309F466CF0E9479
:104530001320882351F080932B06812F0E94132093
:10454000882329F080932C0658CF81E0F4CF81E0B6
:10455000F9CF0F931F93CF93DF93C42FD22FFC017A
:1045600085818823C9F040932F060E949D25909352
:104570002E0680932D0680E28C0F883040F4C770A1
:1045800081E001C0880FCA95EAF70E946B05DF91B0
:10459000CF911F910F91089510912F06141332C0DF
:1045A00080912D0690912E060E94B525883C91059C
:1045B00048F5C0E2CD0F1D17B9F080E2810F8830B9
:1045C00040F4177081E001C0880F1A95EAF70E9445
:1045D0007205C83048F481E09D2F977001C0880FA4
:1045E0009A95EAF70E946B05802F0E946205C830F9
:1045F00070F6D77081E001C0880FDA95EAF70E9463
:104600007205C5CF80E28C0F883008F6C77081E054
:1046100001C0880FCA95EAF7F2CF0F93DB018851EA
:104620009C4787309105A0F5FC01E450F14D0C94B6
:10463000F72D06E221EE41EE6AE17CE7CD010E9412
:10464000A92280E00F91089507E225EE45EE6BE187
:104650007CE7F4CF06E221EE40EE68E17CE7EECFA6
:1046600007E225EE44EE69E17CE7E8CF06E221EEC1
:1046700042EE6CE17CE7E2CF07E225EE46EE6DE12B
:104680007CE7DCCF08E221E045EE6EE17CE7D6CFA7
:1046900015968C91882319F010922F06D3CF81E0C4
:1046A000D1CF90933506809334060895E091340677
:1046B000F0913506309729F00190F081E02D0995B1
:1046C000089580E008950E9456230895E0913406ED
:1046D000F0913506309721F00280F381E02D0995A5
:1046E0000895E0913406F0913506309739F026E0D0
:1046F000DC012C930480F581E02D09950895E0916B
:104700003406F0913506309739F022E0DC012C9325
:104710000680F781E02D09950895A3E0B0E0E3E974
:10472000F3E20C940D2E20913206309133062817B7
:104730003907A1F09093330680933206E091340656
:10474000F0913506309751F023E029839B838A83CB
:104750000084F185E02DCE01019609952396E2E0D3
:104760000C94292EA3E0B0E0E8EBF3E20C940D2EBC
:10477000209130063091310628173907A1F0909327
:10478000310680933006E0913406F091350630977B
:1047900051F024E029839B838A830084F185E02DF6
:1047A000CE01019609952396E2E00C94292E2091E2
:1047B0005E0230915F022E5F3F4F80917A02882324
:1047C00079F08091420687FF0BC020915C02309106
:1047D0005D022E5F3F4F9EE180E0915018F40895F6
:1047E00096E0FACFF90141919F014423B1F38F5F25
:1047F000F4CF882321F190917A02992311F19091BD
:10480000420697FF1EC0E82FE695E695E695EE3145
:10481000B0F420915C0230915D02E20FF32FF11DA4
:10482000228130E0877041E050E002C0440F551F04
:104830008A95E2F72423352381E0232B91F480E04D
:10484000089520915E0230915F02F9013296285F4F
:104850003F4F9191981721F0E217F307D1F7EFCF6F
:1048600081E008959C01FC0132969FEF80E0419128
:10487000461751F09F3F19F4411101C0982F8F5FE7
:104880008630A9F79F3F09F40895290F311D97FD40
:104890003A95F90162830895FC01329608962191B8
:1048A000261303C0DF0111971C92E817F907B9F727
:1048B0000895E62FE695E695E695EE3168F4E80F63
:1048C000F92FF11D677021E030E001C0220F6A95D9
:1048D000EAF78281822B82830895E62FE695E6959A
:1048E000E695EE3170F4E80FF92FF11D677021E0C5
:1048F00030E001C0220F6A95EAF7209582812823D3
:1049000022830895682F80917A02882359F080913C
:10491000420687FF07C080915C0290915D020E9471
:104920005924089580915E0290915F020E94322482
:104930000895682F80917A02882359F08091420669
:1049400087FF07C080915C0290915D020E946D24F8
:10495000089580915E0290915F020E944C24089518
:1049600080917A02882379F08091420687FF0BC0FC
:10497000E0915C02F0915D0232968EE1DF011D92C2
:104980008A95E9F70895E0915E02F0915F02329610
:1049900086E0F4CFDC01FB0111969C911197818197
:1049A000981322C012968C911297882319F0928145
:1049B00089131AC013968C911397882319F0938149
:1049C000891312C015968C911597882319F095813B
:1049D00089130AC014969C91992321F081E02481C7
:1049E000291303C080E001C081E08170089508951B
:1049F0000E94F7240895811106C081E08093360655
:104A00000E94F824089582E0F9CF83E0809336066F
:104A10000E94F82408950E94FB24089581E0809369
:104A200036060E94F82408950E940E2508950895E0
:104A300008950E9418250895089508950E94172545
:104A40000895CF930E941C250E9407120E941D25E5
:104A5000C0E08C2F0E943811892B31F4CF5FC63013
:104A6000C1F780E0CF91089581E0FCCF85B78068E1
:104A700085BF85B7806885BF08951F921FB61F92B6
:104A800011248F939F93AF93BF9380913706811129
:104A900013C08091910690919206A0919306B091D7
:104AA00094064196A11DB11D8093910690939206A4
:104AB000A0939306B0939406BF91AF919F918F916D
:104AC0001F901FBE1F90189580919906843031F178
:104AD0000E943A041092370688E190E020E40FB675
:104AE000F894A895809360000FBE2093600083B770
:104AF000817F846083BF83B7816083BF789488950A
:104B000083B78E7F83BF0FB6F894A895809160001D
:104B1000886180936000109260000FBE08950E942B
:104B2000C1070E944404089582E084BD93E095BDCE
:104B30009AEF97BD80936E0008952FB7F8948091F7
:104B4000910690919206A0919306B09194062FBF82
:104B500008952FB7F8946091910670919206809114
:104B60009306909194062FBF08959C014FB7F89437
:104B70008091910690919206A0919306B09194062F
:104B80004FBF821B930B0895CF92DF92EF92FF925B
:104B90002FB7F894C0909106D0909206E0909306BB
:104BA000F09094062FBFA7019601261B370B480BE8
:104BB000590BCA01B901FF90EF90DF90CF90089593
:104BC00078941F921FB61F9211248F939F93AF93D7
:104BD000BF938091910690919206A0919306B09117
:104BE00094060196A11DB11D8093910690939206A3
:104BF000A0939306B0939406BF91AF919F918F912C
:104C00001F901FBE1F90189581E08093E00080E206
:104C10008093D8001092C9008FE19EE40197F1F7CC
:104C200000C0000087E090EBDC018093A206909327
:104C3000A306A093A406B093A50688E19CE00FB656
:104C4000F894A895809360000FBE90936000FFCF0A
:104C500088E19CE00FB6F894A895809360000FBEA1
:104C600090936000FFCFEF92FF920F931F93CF932B
:104C7000DF93182FEB011092BC0084EA8093BC00F4
:104C80000E949D257C018091BC0087FF27C08091F8
:104C9000B900887F883029F08091B900887F803101
:104CA00089F51093BB0084E88093BC000E949D2589
:104CB0008C018091BC0087FF1EC02091B900287F25
:104CC00090E080E0283191F081E090E0203411F410
:104CD00090E080E091958195910908C0C7010E94FC
:104CE000B525C817D90778F68EEF9FEFCDB7DEB799
:104CF000E6E00C94252EC8010E94B525C817D907F7
:104D0000C0F6F2CF8FEF9FEFF1CF1092B9008CE099
:104D10008093B80008950F931F93CF93DF93EB0117
:104D20008093BB0084E88093BC000E949D258C0189
:104D30008091BC0087FF11C02091B900287F81E0DD
:104D400090E0283211F490E080E0919581959109EE
:104D5000DF91CF911F910F910895CF3FDC0741F371
:104D6000C8010E94B525C817D90710F78EEF9FEF2D
:104D7000EFCFB0E0A0E0EFEBF6E20C94012E682E4E
:104D8000762E5A0169010E949D254C01C1E0D0E0B8
:104D90000431110558F0C5E0D0E00F3F100731F0A5
:104DA000C80164E170E00E948E2DEB01BE01862DEA
:104DB0000E9433267C0197FF1DC00F3F1007B1F3FF
:104DC000C4010E94B5250817190780F784E980936C
:104DD000BC00C701CDB7DEB7EEE00C941D2EB801C4
:104DE00089910E948B267C01CC16DD0679F3F7FEB3
:104DF000F6CFECCFB801872D0E948B267C01E50110
:104E0000CA0CDB1CF1CF8091400608959B01BA01CA
:104E1000909199069430E9F48F708093E9009FEFA8
:104E20008091E800915085FD06C085ED8A95F1F7E7
:104E300000009111F5CF8091E80085FF0AC050E095
:104E400040E0C9010E9407298091E8008E77809395
:104E5000E800089543E050E0BC0182E00E9406278C
:104E6000089546E050E0BC0182E00E9406270895C4
:104E700040E250E0BC0182E00E9406270895CF93F3
:104E8000DF93EC0148E050E0BC0181E00E9406277E
:104E900088E0FE01A8E3B6E001900D928A95E1F763
:104EA000DF91CF91089580919806811109C00E94E9
:104EB000972A0E94F42A8091E20084608093E200A5
:104EC00008951092980608950E940E250895609105
:104ED000950681E0611101C080E00E9405250895DA
:104EE0009091990681E0943009F080E060919506F8
:104EF0000E940B25089542E061EC81E00E94132A94
:104F000042E261EC82E00E94132A9091990681E0CE
:104F1000943009F080E0609195060E94FB2408958A
:104F200080919B06833009F461C030F48130D1F167
:104F3000823009F49EC008958A3009F48AC08B300B
:104F400009F46FC0893009F050C080919A0681320F
:104F500009F04BC080919E0690919F06029708F041
:104F600044C08091E800877F8093E8008091E8004A
:104F700082FF37C09091F3008091F200029731F4E4
:104F80008091F100813011F0863021F48091F100A0
:104F9000809340068091E8008B778093E8000E9420
:104FA000472A23C080919A06813AF9F48091E8005B
:104FB000877F8093E80080919E0690919F06892BC1
:104FC00061F468E088E396E070E00E9456298091E1
:104FD000E8008B778093E800089560E090E080E03F
:104FE000F3CF809199068111C1CF089580919A06DF
:104FF000813AD9F780919E0690919F06892BA9F757
:105000008091E800877F8093E8008091E80080FF2E
:10501000FCCF80917A028093F1008091E8008E7736
:10502000BCCF80919A06813201F780919E069091C3
:105030009F06892BD1F68091E800877F8093E80056
:105040000E94472A80919C0680937A020E94C107A1
:10505000089580919A06813241F68091E800877F19
:105060008093E8000E94472A80919D068093410624
:10507000089580919A06813A09F0B7CF8091E800AF
:10508000877F8093E8008091E80080FFFCCF8091CB
:105090004106C1CF84B7877F84BF0FB6F894A89527
:1050A00080916000886180936000109260000FBE64
:1050B00080E890E00FB6F8948093610090936100CF
:1050C0000FBE0E94142508950E94972A0E94F42A78
:1050D000E2EEF0E080818460808378940E94732DFA
:1050E000089580E792E00E945123089580919906E7
:1050F000853031F480919906853019F00E948F2512
:1051000008950E94642580919706882399F30E9450
:105110002125882379F30E94F1280E94C107EACF54
:1051200008959A014091A0065091A1060E949928E5
:105130000895492F55274330510519F168F441303E
:10514000510509F444C04230510509F445C090E0CE
:1051500080E050E040E025C04132510549F1423243
:105160005105A9F784E490E043E955E06115710524
:10517000C1F086EB90E04DED54E06130710589F0AF
:10518000E6CF99278130910581F0009729F00297A9
:10519000F1F6ECE6F4E002C0ECE8F4E0849190E093
:1051A000AF01F901518340830895ECE7F4E0F6CFB5
:1051B00089E090E042EA54E06115710591F389E0DD
:1051C00090E04BEB54E06130710559F3C0CF82E1C0
:1051D00090E04BEC54E0E5CF8BE390E040E954E005
:1051E000E0CF80E189BD82E189BD09B400FEFDCF39
:1051F0008091D8008F7D8093D8008091E0008260FC
:105200008093E0008091E00081FDFCCF0895AF9293
:10521000BF92CF92DF92FF920F931F93CF93DF93B2
:105220006C01EB018A010E94662AF82E811123C0CD
:105230000115110539F0F80180819181C81BD90B46
:10524000C80ED91EB12CA12C2097A9F08091E8009E
:1052500085FD22C08091E8008E778093E8000115DB
:105260001105A1F0F80180819181A80EB91EB182CB
:10527000A08285E0F82E8F2DDF91CF911F910F91A5
:10528000FF90DF90CF90BF90AF9008950E94662A64
:105290008823D1F2F82EEFCFF60181916F01809330
:1052A000F1002197FFEFAF1ABF0ACECFFC0180912A
:1052B000A0069091A10686179707A0F061157105C9
:1052C00029F49091E8009E779093E80090E06115B2
:1052D000710551F4911108C08091E80082FF34C03B
:1052E00080E00895BC01F2CF809199068823C1F136
:1052F0008530C1F18091E80083FD30C08091E800E5
:1053000082FDEACF8091E80080FFE1CF8091F30039
:105310002091F200382F6115710519F02830310500
:1053200058F091E02830310509F090E02091E80034
:105330002E772093E800CBCF81918093F1006150CC
:1053400071092F5F3F4FE7CF80919906882341F085
:10535000853041F08091E80083FFBECF81E0089561
:1053600082E0089583E00895FC018091A006909169
:10537000A10686179707A0F06115710529F48091A1
:10538000E8008E778093E80090E06115710551F494
:10539000911108C08091E80082FF35C080E0089537
:1053A000BC01F2CF809199068823C9F18530C9F1FB
:1053B0008091E80083FD31C08091E80082FDEACF52
:1053C0008091E80080FFE1CF8091F3002091F2000E
:1053D000382F6115710519F02830310558F091E02A
:1053E0002830310509F090E08091E8008E778093B5
:1053F000E800CBCF84918093F10031966150710920
:105400002F5F3F4FE6CF80919906882341F085308A
:1054100041F08091E80083FFBDCF81E0089582E0F4
:10542000089583E00895982F973028F08F70809327
:10543000E90081E008959093E900242F762F50E051
:10544000981731F07091EC002091ED005091F00030
:1054500021FD02C09F5FE8CF3091EB003E7F30938B
:10546000EB003091ED003D7F3093ED003091EB008B
:1054700031603093EB007093EC002093ED0050937B
:10548000F0002091EE0027FDE5CF80E008958091A7
:105490009A0687FF13C08091E80082FF06C08091C2
:1054A000E8008B778093E80004C080919906811111
:1054B000F2CF0895809199068823D9F38091E8006E
:1054C00080FFF8CF8091E8008E77ECCF2091E40048
:1054D0003091E50095E6A9012091EC00822F8170C2
:1054E00020FF06C08091E80080FF06C080E008959C
:1054F0002091E80022FD1AC080919906882389F046
:10550000853089F08091EB0085FD0FC02091E4008B
:105510003091E50042175307F9F29150E1F684E02B
:10552000089582E0089583E0089581E008950E943F
:10553000062B0E940E2BE0EEF0E0808181608083DC
:10554000E8EDF0E080818F77808319BCA7EDB0E0B3
:105550008C918E7F8C9380818F7E808310929806B1
:1055600008950F931F93CF93DF930E94062B0E9401
:105570000E2BC8EDD0E088818F7788838881806882
:10558000888388818F7D888319BC10929906109238
:105590009506109297061092960600EE10E0F8011C
:1055A00080818B7F808388818160888342E060E096
:1055B00080E00E94132AE1EEF0E080818E7F8083FC
:1055C000E2EEF0E08081816080838081886080836A
:1055D000F80180818E7F8083888180618883DF915C
:1055E000CF911F910F910895E8EDF0E080818F7EBB
:1055F0008083E7EDF0E080818160808384E082BF7A
:1056000081E0809398060E94B12A0895E8EDF0E0C9
:1056100080818E7F80831092E20008951092DA00DC
:105620001092E10008951F920F920FB60F9211246D
:105630002F933F934F935F936F937F938F939F939A
:10564000AF93BF93EF93FF938091E10082FF0BC074
:105650008091E20082FF07C08091E1008B7F809300
:10566000E1000E94722D8091DA0080FF19C08091C4
:10567000D80080FF15C08091DA008E7F8093DA0019
:105680008091D90080FF96C080E189BD82E189BD0B
:1056900009B400FEFDCF81E0809399060E94532754
:1056A0008091E10080FF19C08091E20080FF15C069
:1056B0008091E2008E7F8093E2008091E200806121
:1056C0008093E2008091D80080628093D80019BC5A
:1056D00085E0809399060E9467278091E10084FF0E
:1056E0002BC08091E20084FF27C080E189BD82E168
:1056F00089BD89B5982F917080FFFBCF8091D8002C
:105700008F7D8093D8008091E1008F7E8093E100AF
:105710008091E2008F7E8093E2008091E2008160C0
:105720008093E20080919506882309F449C084E0C3
:10573000809399060E9470278091E10083FF29C021
:105740008091E20083FF25C08091E100877F8093F4
:10575000E10082E080939906109295068091E10025
:105760008E7F8093E1008091E2008E7F8093E20043
:105770008091E20080618093E20042E060E080E09E
:105780000E94132A8091F00088608093F0000E94AC
:105790006427FF91EF91BF91AF919F918F917F917E
:1057A0006F915F914F913F912F910F900FBE0F908E
:1057B0001F90189519BC109299060E94612770CF0E
:1057C0008091E30087FD93E090939906B3CF1F92F9
:1057D0000F920FB60F9211242F933F934F935F9325
:1057E0006F937F938F939F93AF93BF93CF93DF93E9
:1057F000EF93FF93D091E900DF708091EC00C82F08
:10580000C17080FDC0E81092E9008091F000877FB0
:105810008093F00078940E942B2C1092E9008091E4
:10582000F00088608093F000CD2BCF70C093E9002A
:10583000FF91EF91DF91CF91BF91AF919F918F91A8
:105840007F916F915F914F913F912F910F900FBE7C
:105850000F901F901895AAE2B0E0E1E3FCE20C94EF
:105860000C2E8AE996E02091F100FC012193CF01F2
:10587000F6E0823A9F07B9F70E9490278091E800EE
:1058800083FF1EC180919A0690919B069A3008F082
:1058900017C1E92FF0E0ED5FF04D0C94F72D803843
:1058A00099F0823809F00CC180919E068F70873084
:1058B00008F006C18093E9008091EB0085FB882702
:1058C00080F91092E90006C08091960690919706A3
:1058D000911182609091E800977F9093E800809307
:1058E000F1001092F1008091E8008E77E5C08823E6
:1058F00009F4D3C0823009F0E3C080919C06811185
:10590000D6C080919E068F702FEF280F263008F0AA
:10591000D7C08093E9002091EB0020FFC8C09330EE
:1059200031F48091EB0080628093EB00C0C09091D5
:10593000EB0090619093EB0021E030E001C0220F7A
:105940008A95EAF72093EA001092EA008091EB0032
:105950008860EACF8111B4C010919C061F778091B6
:10596000E3008078812B8093E3008091E800877FBB
:105970008093E8000E94472A8091E80080FFFCCFD6
:105980008091E30080688093E30082E0111183E05E
:105990008093990695C08058823008F091C080911C
:1059A0009C0690919D068C3D23E09207A1F583E033
:1059B0008A838AE289834FB7F894DE01139620E048
:1059C0003EE051E2E32FF0E050935700E49120FFD6
:1059D00003C0E295EF703F5FEF708E2F90E0EA30EA
:1059E000C0F0C7968D939D932F5F243159F74FBF19
:1059F0008091E800877F8093E8006AE270E0CE0142
:105A000001960E9456298091E8008B778093E800E8
:105A100057C0C096E7CF60919E0670919F06AE0179
:105A20004F5F5F4F0E949128BC01892B09F448C049
:105A30009091E800977F9093E80089819A810E9475
:105A4000B429E1CF8038E1F58091E800877F809329
:105A5000E800809195068093F10045CF811130C018
:105A600090919C06923060F58091E800877F80934A
:105A7000E800909395060E94472A80919506882316
:105A800011F084E005C08091E30087FDFACF81E04A
:105A9000809399060E947B2713C080919C068130D9
:105AA00079F481E0933009F080E0809397061092BA
:105AB000E9008091E800877F8093E8000E94472AF0
:105AC0008091E80083FF0AC08091E800877F80937F
:105AD000E8008091EB0080628093EB00AA96E3E0FF
